{"contracts/PairFlash.sol":{"PairFlash":{"abi":[{"inputs":[{"internalType":"contract ISwapRouter","name":"_swapRouter","type":"address"},{"internalType":"address","name":"_factory","type":"address"},{"internalType":"address","name":"_WETH9","type":"address"}],"stateMutability":"nonpayable","type":"constructor"},{"inputs":[],"name":"WETH9","outputs":[{"internalType":"address","name":"","type":"address"}],"stateMutability":"view","type":"function"},{"inputs":[],"name":"factory","outputs":[{"internalType":"address","name":"","type":"address"}],"stateMutability":"view","type":"function"},{"inputs":[{"components":[{"internalType":"address","name":"token0","type":"address"},{"internalType":"address","name":"token1","type":"address"},{"internalType":"uint24","name":"fee1","type":"uint24"},{"internalType":"uint256","name":"amount0","type":"uint256"},{"internalType":"uint256","name":"amount1","type":"uint256"},{"internalType":"uint24","name":"fee2","type":"uint24"},{"internalType":"uint24","name":"fee3","type":"uint24"}],"internalType":"struct PairFlash.FlashParams","name":"params","type":"tuple"}],"name":"initFlash","outputs":[],"stateMutability":"nonpayable","type":"function"},{"inputs":[],"name":"refundETH","outputs":[],"stateMutability":"payable","type":"function"},{"inputs":[],"name":"swapRouter","outputs":[{"internalType":"contract ISwapRouter","name":"","type":"address"}],"stateMutability":"view","type":"function"},{"inputs":[{"internalType":"address","name":"token","type":"address"},{"internalType":"uint256","name":"amountMinimum","type":"uint256"},{"internalType":"address","name":"recipient","type":"address"}],"name":"sweepToken","outputs":[],"stateMutability":"payable","type":"function"},{"inputs":[{"internalType":"uint256","name":"fee0","type":"uint256"},{"internalType":"uint256","name":"fee1","type":"uint256"},{"internalType":"bytes","name":"data","type":"bytes"}],"name":"uniswapV3FlashCallback","outputs":[],"stateMutability":"nonpayable","type":"function"},{"inputs":[{"internalType":"uint256","name":"amountMinimum","type":"uint256"},{"internalType":"address","name":"recipient","type":"address"}],"name":"unwrapWETH9","outputs":[],"stateMutability":"payable","type":"function"},{"stateMutability":"payable","type":"receive"}],"evm":{"bytecode":{"linkReferences":{},"object":"60e06040523480156200001157600080fd5b50604051620021ec380380620021ec833981810160405281019062000037919062000117565b81818173ffffffffffffffffffffffffffffffffffffffff1660808173ffffffffffffffffffffffffffffffffffffffff1660601b815250508073ffffffffffffffffffffffffffffffffffffffff1660a08173ffffffffffffffffffffffffffffffffffffffff1660601b8152505050508273ffffffffffffffffffffffffffffffffffffffff1660c08173ffffffffffffffffffffffffffffffffffffffff1660601b81525050505050620001e9565b600081519050620000fa81620001b5565b92915050565b6000815190506200011181620001cf565b92915050565b6000806000606084860312156200012d57600080fd5b60006200013d8682870162000100565b93505060206200015086828701620000e9565b92505060406200016386828701620000e9565b9150509250925092565b60006200017a8262000195565b9050919050565b60006200018e826200016d565b9050919050565b600073ffffffffffffffffffffffffffffffffffffffff82169050919050565b620001c0816200016d565b8114620001cc57600080fd5b50565b620001da8162000181565b8114620001e657600080fd5b50565b60805160601c60a05160601c60c05160601c611f926200025a6000398061060052806107df528061080e528061085f52806109ad525080608652806103fe528061054152806105dc5280611313528061137352806113f45250806102da528061062452806107955250611f926000f3fe60806040526004361061007f5760003560e01c8063c31c9c071161004e578063c31c9c07146101c6578063c45a0155146101f1578063df2ab5bb1461021c578063e9cbafb01461023857610147565b806312210e8a1461014c5780632384463b1461015657806349404b7c1461017f5780634aa4a4fc1461019b57610147565b36610147577f000000000000000000000000000000000000000000000000000000000000000073ffffffffffffffffffffffffffffffffffffffff163373ffffffffffffffffffffffffffffffffffffffff1614610145576040517f08c379a00000000000000000000000000000000000000000000000000000000081526004018080602001828103825260098152602001807f4e6f74205745544839000000000000000000000000000000000000000000000081525060200191505060405180910390fd5b005b600080fd5b610154610261565b005b34801561016257600080fd5b5061017d60048036038101906101789190611a1a565b610277565b005b61019960048036038101906101949190611a6c565b6103fa565b005b3480156101a757600080fd5b506101b06105da565b6040516101bd9190611d25565b60405180910390f35b3480156101d257600080fd5b506101db6105fe565b6040516101e89190611d8c565b60405180910390f35b3480156101fd57600080fd5b50610206610622565b6040516102139190611d25565b60405180910390f35b610236600480360381019061023191906119a1565b610646565b005b34801561024457600080fd5b5061025f600480360381019061025a9190611aa8565b61077d565b005b6000471115610275576102743347610bd2565b5b565b60006040518060600160405280836000015173ffffffffffffffffffffffffffffffffffffffff168152602001836020015173ffffffffffffffffffffffffffffffffffffffff168152602001836040015162ffffff16815250905060006102ff7f000000000000000000000000000000000000000000000000000000000000000083610d4e565b90508073ffffffffffffffffffffffffffffffffffffffff1663490e6cbc30856060015186608001516040518060c0016040528089606001518152602001896080015181526020013373ffffffffffffffffffffffffffffffffffffffff1681526020018881526020018960a0015162ffffff1681526020018960c0015162ffffff168152506040516020016103959190611dc3565b6040516020818303038152906040526040518563ffffffff1660e01b81526004016103c39493929190611d40565b600060405180830381600087803b1580156103dd57600080fd5b505af11580156103f1573d6000803e3d6000fd5b50505050505050565b60007f000000000000000000000000000000000000000000000000000000000000000073ffffffffffffffffffffffffffffffffffffffff166370a08231306040518263ffffffff1660e01b8152600401808273ffffffffffffffffffffffffffffffffffffffff16815260200191505060206040518083038186803b15801561048357600080fd5b505afa158015610497573d6000803e3d6000fd5b505050506040513d60208110156104ad57600080fd5b8101908080519060200190929190505050905082811015610536576040517f08c379a00000000000000000000000000000000000000000000000000000000081526004018080602001828103825260128152602001807f496e73756666696369656e74205745544839000000000000000000000000000081525060200191505060405180910390fd5b60008111156105d5577f000000000000000000000000000000000000000000000000000000000000000073ffffffffffffffffffffffffffffffffffffffff16632e1a7d4d826040518263ffffffff1660e01b815260040180828152602001915050600060405180830381600087803b1580156105b257600080fd5b505af11580156105c6573d6000803e3d6000fd5b505050506105d48282610bd2565b5b505050565b7f000000000000000000000000000000000000000000000000000000000000000081565b7f000000000000000000000000000000000000000000000000000000000000000081565b7f000000000000000000000000000000000000000000000000000000000000000081565b60008373ffffffffffffffffffffffffffffffffffffffff166370a08231306040518263ffffffff1660e01b8152600401808273ffffffffffffffffffffffffffffffffffffffff16815260200191505060206040518083038186803b1580156106af57600080fd5b505afa1580156106c3573d6000803e3d6000fd5b505050506040513d60208110156106d957600080fd5b8101908080519060200190929190505050905082811015610762576040517f08c379a00000000000000000000000000000000000000000000000000000000081526004018080602001828103825260128152602001807f496e73756666696369656e7420746f6b656e000000000000000000000000000081525060200191505060405180910390fd5b600081111561077757610776848383610ea9565b5b50505050565b6000828281019061078e91906119f0565b90506107be7f000000000000000000000000000000000000000000000000000000000000000082606001516110aa565b506000816060015160000151905060008260600151602001519050610808827f000000000000000000000000000000000000000000000000000000000000000085600001516110f6565b610837817f000000000000000000000000000000000000000000000000000000000000000085602001516110f6565b60006108478460200151886112f7565b9050600061085985600001518a6112f7565b905060007f000000000000000000000000000000000000000000000000000000000000000073ffffffffffffffffffffffffffffffffffffffff1663414bf3896040518061010001604052808773ffffffffffffffffffffffffffffffffffffffff1681526020018873ffffffffffffffffffffffffffffffffffffffff168152602001896080015162ffffff1681526020013073ffffffffffffffffffffffffffffffffffffffff16815260200142815260200189602001518152602001858152602001600073ffffffffffffffffffffffffffffffffffffffff168152506040518263ffffffff1660e01b81526004016109559190611da7565b602060405180830381600087803b15801561096f57600080fd5b505af1158015610983573d6000803e3d6000fd5b505050506040513d601f19601f820116820180604052508101906109a79190611a43565b905060007f000000000000000000000000000000000000000000000000000000000000000073ffffffffffffffffffffffffffffffffffffffff1663414bf3896040518061010001604052808973ffffffffffffffffffffffffffffffffffffffff1681526020018873ffffffffffffffffffffffffffffffffffffffff1681526020018a60a0015162ffffff1681526020013073ffffffffffffffffffffffffffffffffffffffff1681526020014281526020018a600001518152602001878152602001600073ffffffffffffffffffffffffffffffffffffffff168152506040518263ffffffff1660e01b8152600401610aa39190611da7565b602060405180830381600087803b158015610abd57600080fd5b505af1158015610ad1573d6000803e3d6000fd5b505050506040513d601f19601f82011682018060405250810190610af59190611a43565b90506000610b0788600001518d6112f7565b90506000610b1989602001518d6112f7565b9050610b268830846110f6565b610b318730836110f6565b6000821115610b4757610b4688303385611311565b5b6000811115610b5d57610b5c87303384611311565b5b81841115610b90576000610b71858461151c565b9050610b7e8930836110f6565b610b8e89308c6040015184611311565b505b80831115610bc3576000610ba4848361151c565b9050610bb18930836110f6565b610bc188308c6040015184611311565b505b50505050505050505050505050565b60008273ffffffffffffffffffffffffffffffffffffffff1682600067ffffffffffffffff81118015610c0457600080fd5b506040519080825280601f01601f191660200182016040528015610c375781602001600182028036833780820191505090505b506040518082805190602001908083835b60208310610c6b5780518252602082019150602081019050602083039250610c48565b6001836020036101000a03801982511681845116808217855250505050505090500191505060006040518083038185875af1925050503d8060008114610ccd576040519150601f19603f3d011682016040523d82523d6000602084013e610cd2565b606091505b5050905080610d49576040517f08c379a00000000000000000000000000000000000000000000000000000000081526004018080602001828103825260038152602001807f535445000000000000000000000000000000000000000000000000000000000081525060200191505060405180910390fd5b505050565b6000816020015173ffffffffffffffffffffffffffffffffffffffff16826000015173ffffffffffffffffffffffffffffffffffffffff1610610d9057600080fd5b82826000015183602001518460400151604051602001808473ffffffffffffffffffffffffffffffffffffffff1681526020018373ffffffffffffffffffffffffffffffffffffffff1681526020018262ffffff1681526020019350505050604051602081830303815290604052805190602001207fe34f199b19b2b4f47f68442619d555527d244f78a3297ea89325f843f87b8b5460001b60405160200180807fff000000000000000000000000000000000000000000000000000000000000008152506001018473ffffffffffffffffffffffffffffffffffffffff1660601b815260140183815260200182815260200193505050506040516020818303038152906040528051906020012060001c905092915050565b6000808473ffffffffffffffffffffffffffffffffffffffff1663a9059cbb60e01b8585604051602401808373ffffffffffffffffffffffffffffffffffffffff16815260200182815260200192505050604051602081830303815290604052907bffffffffffffffffffffffffffffffffffffffffffffffffffffffff19166020820180517bffffffffffffffffffffffffffffffffffffffffffffffffffffffff83818316178352505050506040518082805190602001908083835b60208310610f8a5780518252602082019150602081019050602083039250610f67565b6001836020036101000a0380198251168184511680821785525050505050509050019150506000604051808303816000865af19150503d8060008114610fec576040519150601f19603f3d011682016040523d82523d6000602084013e610ff1565b606091505b50915091508180156110315750600081511480611030575080806020019051602081101561101e57600080fd5b81019080805190602001909291905050505b5b6110a3576040517f08c379a00000000000000000000000000000000000000000000000000000000081526004018080602001828103825260028152602001807f535400000000000000000000000000000000000000000000000000000000000081525060200191505060405180910390fd5b5050505050565b60006110b68383610d4e565b90508073ffffffffffffffffffffffffffffffffffffffff163373ffffffffffffffffffffffffffffffffffffffff16146110f057600080fd5b92915050565b6000808473ffffffffffffffffffffffffffffffffffffffff1663095ea7b360e01b8585604051602401808373ffffffffffffffffffffffffffffffffffffffff16815260200182815260200192505050604051602081830303815290604052907bffffffffffffffffffffffffffffffffffffffffffffffffffffffff19166020820180517bffffffffffffffffffffffffffffffffffffffffffffffffffffffff83818316178352505050506040518082805190602001908083835b602083106111d757805182526020820191506020810190506020830392506111b4565b6001836020036101000a0380198251168184511680821785525050505050509050019150506000604051808303816000865af19150503d8060008114611239576040519150601f19603f3d011682016040523d82523d6000602084013e61123e565b606091505b509150915081801561127e575060008151148061127d575080806020019051602081101561126b57600080fd5b81019080805190602001909291905050505b5b6112f0576040517f08c379a00000000000000000000000000000000000000000000000000000000081526004018080602001828103825260028152602001807f534100000000000000000000000000000000000000000000000000000000000081525060200191505060405180910390fd5b5050505050565b600082828401915081101561130b57600080fd5b92915050565b7f000000000000000000000000000000000000000000000000000000000000000073ffffffffffffffffffffffffffffffffffffffff168473ffffffffffffffffffffffffffffffffffffffff1614801561136c5750804710155b156114c4577f000000000000000000000000000000000000000000000000000000000000000073ffffffffffffffffffffffffffffffffffffffff1663d0e30db0826040518263ffffffff1660e01b81526004016000604051808303818588803b1580156113d957600080fd5b505af11580156113ed573d6000803e3d6000fd5b50505050507f000000000000000000000000000000000000000000000000000000000000000073ffffffffffffffffffffffffffffffffffffffff1663a9059cbb83836040518363ffffffff1660e01b8152600401808373ffffffffffffffffffffffffffffffffffffffff16815260200182815260200192505050602060405180830381600087803b15801561148357600080fd5b505af1158015611497573d6000803e3d6000fd5b505050506040513d60208110156114ad57600080fd5b810190808051906020019092919050505050611516565b3073ffffffffffffffffffffffffffffffffffffffff168373ffffffffffffffffffffffffffffffffffffffff16141561150857611503848383610ea9565b611515565b61151484848484611536565b5b5b50505050565b600082828403915081111561153057600080fd5b92915050565b6000808573ffffffffffffffffffffffffffffffffffffffff166323b872dd60e01b868686604051602401808473ffffffffffffffffffffffffffffffffffffffff1681526020018373ffffffffffffffffffffffffffffffffffffffff1681526020018281526020019350505050604051602081830303815290604052907bffffffffffffffffffffffffffffffffffffffffffffffffffffffff19166020820180517bffffffffffffffffffffffffffffffffffffffffffffffffffffffff83818316178352505050506040518082805190602001908083835b602083106116355780518252602082019150602081019050602083039250611612565b6001836020036101000a0380198251168184511680821785525050505050509050019150506000604051808303816000865af19150503d8060008114611697576040519150601f19603f3d011682016040523d82523d6000602084013e61169c565b606091505b50915091508180156116dc57506000815114806116db57508080602001905160208110156116c957600080fd5b81019080805190602001909291905050505b5b61174e576040517f08c379a00000000000000000000000000000000000000000000000000000000081526004018080602001828103825260038152602001807f535446000000000000000000000000000000000000000000000000000000000081525060200191505060405180910390fd5b505050505050565b60008135905061176581611f17565b92915050565b60008083601f84011261177d57600080fd5b8235905067ffffffffffffffff81111561179657600080fd5b6020830191508360018202830111156117ae57600080fd5b9250929050565b600061010082840312156117c857600080fd5b6117d260c0611ddf565b905060006117e284828501611977565b60008301525060206117f684828501611977565b602083015250604061180a84828501611756565b604083015250606061181e84828501611902565b60608301525060c061183284828501611962565b60808301525060e061184684828501611962565b60a08301525092915050565b600060e0828403121561186457600080fd5b61186e60e0611ddf565b9050600061187e84828501611756565b600083015250602061189284828501611756565b60208301525060406118a684828501611962565b60408301525060606118ba84828501611977565b60608301525060806118ce84828501611977565b60808301525060a06118e284828501611962565b60a08301525060c06118f684828501611962565b60c08301525092915050565b60006060828403121561191457600080fd5b61191e6060611ddf565b9050600061192e84828501611756565b600083015250602061194284828501611756565b602083015250604061195684828501611962565b60408301525092915050565b60008135905061197181611f2e565b92915050565b60008135905061198681611f45565b92915050565b60008151905061199b81611f45565b92915050565b6000806000606084860312156119b657600080fd5b60006119c486828701611756565b93505060206119d586828701611977565b92505060406119e686828701611756565b9150509250925092565b60006101008284031215611a0357600080fd5b6000611a11848285016117b5565b91505092915050565b600060e08284031215611a2c57600080fd5b6000611a3a84828501611852565b91505092915050565b600060208284031215611a5557600080fd5b6000611a638482850161198c565b91505092915050565b60008060408385031215611a7f57600080fd5b6000611a8d85828601611977565b9250506020611a9e85828601611756565b9150509250929050565b60008060008060608587031215611abe57600080fd5b6000611acc87828801611977565b9450506020611add87828801611977565b935050604085013567ffffffffffffffff811115611afa57600080fd5b611b068782880161176b565b925092505092959194509250565b611b1d81611e77565b82525050565b611b2c81611e2c565b82525050565b611b3b81611e2c565b82525050565b6000611b4c82611e10565b611b568185611e1b565b9350611b66818560208601611ed1565b611b6f81611f06565b840191505092915050565b611b8381611e89565b82525050565b61010082016000820151611ba06000850182611b23565b506020820151611bb36020850182611b23565b506040820151611bc66040850182611cf8565b506060820151611bd96060850182611b23565b506080820151611bec6080850182611d07565b5060a0820151611bff60a0850182611d07565b5060c0820151611c1260c0850182611d07565b5060e0820151611c2560e0850182611ce9565b50505050565b61010082016000820151611c426000850182611d07565b506020820151611c556020850182611d07565b506040820151611c686040850182611b23565b506060820151611c7b6060850182611ca7565b506080820151611c8e60c0850182611cf8565b5060a0820151611ca160e0850182611cf8565b50505050565b606082016000820151611cbd6000850182611b23565b506020820151611cd06020850182611b23565b506040820151611ce36040850182611cf8565b50505050565b611cf281611e3e565b82525050565b611d0181611e5e565b82525050565b611d1081611e6d565b82525050565b611d1f81611e6d565b82525050565b6000602082019050611d3a6000830184611b32565b92915050565b6000608082019050611d556000830187611b14565b611d626020830186611d16565b611d6f6040830185611d16565b8181036060830152611d818184611b41565b905095945050505050565b6000602082019050611da16000830184611b7a565b92915050565b600061010082019050611dbd6000830184611b89565b92915050565b600061010082019050611dd96000830184611c2b565b92915050565b6000604051905081810181811067ffffffffffffffff82111715611e0657611e05611f04565b5b8060405250919050565b600081519050919050565b600082825260208201905092915050565b6000611e3782611e3e565b9050919050565b600073ffffffffffffffffffffffffffffffffffffffff82169050919050565b600062ffffff82169050919050565b6000819050919050565b6000611e8282611ead565b9050919050565b6000611e9482611e9b565b9050919050565b6000611ea682611e3e565b9050919050565b6000611eb882611ebf565b9050919050565b6000611eca82611e3e565b9050919050565b60005b83811015611eef578082015181840152602081019050611ed4565b83811115611efe576000848401525b50505050565bfe5b6000601f19601f8301169050919050565b611f2081611e2c565b8114611f2b57600080fd5b50565b611f3781611e5e565b8114611f4257600080fd5b50565b611f4e81611e6d565b8114611f5957600080fd5b5056fea2646970667358221220ceb3b708fbb59d535d3b02624d262ed16a8ea42b04b595baf7c2b11f864eab6964736f6c63430007060033","opcodes":"PUSH1 0xE0 PUSH1 0x40 MSTORE CALLVALUE DUP1 ISZERO PUSH3 0x11 JUMPI PUSH1 0x0 DUP1 REVERT JUMPDEST POP PUSH1 0x40 MLOAD PUSH3 0x21EC CODESIZE SUB DUP1 PUSH3 0x21EC DUP4 CODECOPY DUP2 DUP2 ADD PUSH1 0x40 MSTORE DUP2 ADD SWAP1 PUSH3 0x37 SWAP2 SWAP1 PUSH3 0x117 JUMP JUMPDEST DUP2 DUP2 DUP2 PUSH20 0xFFFFFFFFFFFFFFFFFFFFFFFFFFFFFFFFFFFFFFFF AND PUSH1 0x80 DUP2 PUSH20 0xFFFFFFFFFFFFFFFFFFFFFFFFFFFFFFFFFFFFFFFF AND PUSH1 0x60 SHL DUP2 MSTORE POP POP DUP1 PUSH20 0xFFFFFFFFFFFFFFFFFFFFFFFFFFFFFFFFFFFFFFFF AND PUSH1 0xA0 DUP2 PUSH20 0xFFFFFFFFFFFFFFFFFFFFFFFFFFFFFFFFFFFFFFFF AND PUSH1 0x60 SHL DUP2 MSTORE POP POP POP POP DUP3 PUSH20 0xFFFFFFFFFFFFFFFFFFFFFFFFFFFFFFFFFFFFFFFF AND PUSH1 0xC0 DUP2 PUSH20 0xFFFFFFFFFFFFFFFFFFFFFFFFFFFFFFFFFFFFFFFF AND PUSH1 0x60 SHL DUP2 MSTORE POP POP POP POP POP PUSH3 0x1E9 JUMP JUMPDEST PUSH1 0x0 DUP2 MLOAD SWAP1 POP PUSH3 0xFA DUP2 PUSH3 0x1B5 JUMP JUMPDEST SWAP3 SWAP2 POP POP JUMP JUMPDEST PUSH1 0x0 DUP2 MLOAD SWAP1 POP PUSH3 0x111 DUP2 PUSH3 0x1CF JUMP JUMPDEST SWAP3 SWAP2 POP POP JUMP JUMPDEST PUSH1 0x0 DUP1 PUSH1 0x0 PUSH1 0x60 DUP5 DUP7 SUB SLT ISZERO PUSH3 0x12D JUMPI PUSH1 0x0 DUP1 REVERT JUMPDEST PUSH1 0x0 PUSH3 0x13D DUP7 DUP3 DUP8 ADD PUSH3 0x100 JUMP JUMPDEST SWAP4 POP POP PUSH1 0x20 PUSH3 0x150 DUP7 DUP3 DUP8 ADD PUSH3 0xE9 JUMP JUMPDEST SWAP3 POP POP PUSH1 0x40 PUSH3 0x163 DUP7 DUP3 DUP8 ADD PUSH3 0xE9 JUMP JUMPDEST SWAP2 POP POP SWAP3 POP SWAP3 POP SWAP3 JUMP JUMPDEST PUSH1 0x0 PUSH3 0x17A DUP3 PUSH3 0x195 JUMP JUMPDEST SWAP1 POP SWAP2 SWAP1 POP JUMP JUMPDEST PUSH1 0x0 PUSH3 0x18E DUP3 PUSH3 0x16D JUMP JUMPDEST SWAP1 POP SWAP2 SWAP1 POP JUMP JUMPDEST PUSH1 0x0 PUSH20 0xFFFFFFFFFFFFFFFFFFFFFFFFFFFFFFFFFFFFFFFF DUP3 AND SWAP1 POP SWAP2 SWAP1 POP JUMP JUMPDEST PUSH3 0x1C0 DUP2 PUSH3 0x16D JUMP JUMPDEST DUP2 EQ PUSH3 0x1CC JUMPI PUSH1 0x0 DUP1 REVERT JUMPDEST POP JUMP JUMPDEST PUSH3 0x1DA DUP2 PUSH3 0x181 JUMP JUMPDEST DUP2 EQ PUSH3 0x1E6 JUMPI PUSH1 0x0 DUP1 REVERT JUMPDEST POP JUMP JUMPDEST PUSH1 0x80 MLOAD PUSH1 0x60 SHR PUSH1 0xA0 MLOAD PUSH1 0x60 SHR PUSH1 0xC0 MLOAD PUSH1 0x60 SHR PUSH2 0x1F92 PUSH3 0x25A PUSH1 0x0 CODECOPY DUP1 PUSH2 0x600 MSTORE DUP1 PUSH2 0x7DF MSTORE DUP1 PUSH2 0x80E MSTORE DUP1 PUSH2 0x85F MSTORE DUP1 PUSH2 0x9AD MSTORE POP DUP1 PUSH1 0x86 MSTORE DUP1 PUSH2 0x3FE MSTORE DUP1 PUSH2 0x541 MSTORE DUP1 PUSH2 0x5DC MSTORE DUP1 PUSH2 0x1313 MSTORE DUP1 PUSH2 0x1373 MSTORE DUP1 PUSH2 0x13F4 MSTORE POP DUP1 PUSH2 0x2DA MSTORE DUP1 PUSH2 0x624 MSTORE DUP1 PUSH2 0x795 MSTORE POP PUSH2 0x1F92 PUSH1 0x0 RETURN INVALID PUSH1 0x80 PUSH1 0x40 MSTORE PUSH1 0x4 CALLDATASIZE LT PUSH2 0x7F JUMPI PUSH1 0x0 CALLDATALOAD PUSH1 0xE0 SHR DUP1 PUSH4 0xC31C9C07 GT PUSH2 0x4E JUMPI DUP1 PUSH4 0xC31C9C07 EQ PUSH2 0x1C6 JUMPI DUP1 PUSH4 0xC45A0155 EQ PUSH2 0x1F1 JUMPI DUP1 PUSH4 0xDF2AB5BB EQ PUSH2 0x21C JUMPI DUP1 PUSH4 0xE9CBAFB0 EQ PUSH2 0x238 JUMPI PUSH2 0x147 JUMP JUMPDEST DUP1 PUSH4 0x12210E8A EQ PUSH2 0x14C JUMPI DUP1 PUSH4 0x2384463B EQ PUSH2 0x156 JUMPI DUP1 PUSH4 0x49404B7C EQ PUSH2 0x17F JUMPI DUP1 PUSH4 0x4AA4A4FC EQ PUSH2 0x19B JUMPI PUSH2 0x147 JUMP JUMPDEST CALLDATASIZE PUSH2 0x147 JUMPI PUSH32 0x0 PUSH20 0xFFFFFFFFFFFFFFFFFFFFFFFFFFFFFFFFFFFFFFFF AND CALLER PUSH20 0xFFFFFFFFFFFFFFFFFFFFFFFFFFFFFFFFFFFFFFFF AND EQ PUSH2 0x145 JUMPI PUSH1 0x40 MLOAD PUSH32 0x8C379A000000000000000000000000000000000000000000000000000000000 DUP2 MSTORE PUSH1 0x4 ADD DUP1 DUP1 PUSH1 0x20 ADD DUP3 DUP2 SUB DUP3 MSTORE PUSH1 0x9 DUP2 MSTORE PUSH1 0x20 ADD DUP1 PUSH32 0x4E6F742057455448390000000000000000000000000000000000000000000000 DUP2 MSTORE POP PUSH1 0x20 ADD SWAP2 POP POP PUSH1 0x40 MLOAD DUP1 SWAP2 SUB SWAP1 REVERT JUMPDEST STOP JUMPDEST PUSH1 0x0 DUP1 REVERT JUMPDEST PUSH2 0x154 PUSH2 0x261 JUMP JUMPDEST STOP JUMPDEST CALLVALUE DUP1 ISZERO PUSH2 0x162 JUMPI PUSH1 0x0 DUP1 REVERT JUMPDEST POP PUSH2 0x17D PUSH1 0x4 DUP1 CALLDATASIZE SUB DUP2 ADD SWAP1 PUSH2 0x178 SWAP2 SWAP1 PUSH2 0x1A1A JUMP JUMPDEST PUSH2 0x277 JUMP JUMPDEST STOP JUMPDEST PUSH2 0x199 PUSH1 0x4 DUP1 CALLDATASIZE SUB DUP2 ADD SWAP1 PUSH2 0x194 SWAP2 SWAP1 PUSH2 0x1A6C JUMP JUMPDEST PUSH2 0x3FA JUMP JUMPDEST STOP JUMPDEST CALLVALUE DUP1 ISZERO PUSH2 0x1A7 JUMPI PUSH1 0x0 DUP1 REVERT JUMPDEST POP PUSH2 0x1B0 PUSH2 0x5DA JUMP JUMPDEST PUSH1 0x40 MLOAD PUSH2 0x1BD SWAP2 SWAP1 PUSH2 0x1D25 JUMP JUMPDEST PUSH1 0x40 MLOAD DUP1 SWAP2 SUB SWAP1 RETURN JUMPDEST CALLVALUE DUP1 ISZERO PUSH2 0x1D2 JUMPI PUSH1 0x0 DUP1 REVERT JUMPDEST POP PUSH2 0x1DB PUSH2 0x5FE JUMP JUMPDEST PUSH1 0x40 MLOAD PUSH2 0x1E8 SWAP2 SWAP1 PUSH2 0x1D8C JUMP JUMPDEST PUSH1 0x40 MLOAD DUP1 SWAP2 SUB SWAP1 RETURN JUMPDEST CALLVALUE DUP1 ISZERO PUSH2 0x1FD JUMPI PUSH1 0x0 DUP1 REVERT JUMPDEST POP PUSH2 0x206 PUSH2 0x622 JUMP JUMPDEST PUSH1 0x40 MLOAD PUSH2 0x213 SWAP2 SWAP1 PUSH2 0x1D25 JUMP JUMPDEST PUSH1 0x40 MLOAD DUP1 SWAP2 SUB SWAP1 RETURN JUMPDEST PUSH2 0x236 PUSH1 0x4 DUP1 CALLDATASIZE SUB DUP2 ADD SWAP1 PUSH2 0x231 SWAP2 SWAP1 PUSH2 0x19A1 JUMP JUMPDEST PUSH2 0x646 JUMP JUMPDEST STOP JUMPDEST CALLVALUE DUP1 ISZERO PUSH2 0x244 JUMPI PUSH1 0x0 DUP1 REVERT JUMPDEST POP PUSH2 0x25F PUSH1 0x4 DUP1 CALLDATASIZE SUB DUP2 ADD SWAP1 PUSH2 0x25A SWAP2 SWAP1 PUSH2 0x1AA8 JUMP JUMPDEST PUSH2 0x77D JUMP JUMPDEST STOP JUMPDEST PUSH1 0x0 SELFBALANCE GT ISZERO PUSH2 0x275 JUMPI PUSH2 0x274 CALLER SELFBALANCE PUSH2 0xBD2 JUMP JUMPDEST JUMPDEST JUMP JUMPDEST PUSH1 0x0 PUSH1 0x40 MLOAD DUP1 PUSH1 0x60 ADD PUSH1 0x40 MSTORE DUP1 DUP4 PUSH1 0x0 ADD MLOAD PUSH20 0xFFFFFFFFFFFFFFFFFFFFFFFFFFFFFFFFFFFFFFFF AND DUP2 MSTORE PUSH1 0x20 ADD DUP4 PUSH1 0x20 ADD MLOAD PUSH20 0xFFFFFFFFFFFFFFFFFFFFFFFFFFFFFFFFFFFFFFFF AND DUP2 MSTORE PUSH1 0x20 ADD DUP4 PUSH1 0x40 ADD MLOAD PUSH3 0xFFFFFF AND DUP2 MSTORE POP SWAP1 POP PUSH1 0x0 PUSH2 0x2FF PUSH32 0x0 DUP4 PUSH2 0xD4E JUMP JUMPDEST SWAP1 POP DUP1 PUSH20 0xFFFFFFFFFFFFFFFFFFFFFFFFFFFFFFFFFFFFFFFF AND PUSH4 0x490E6CBC ADDRESS DUP6 PUSH1 0x60 ADD MLOAD DUP7 PUSH1 0x80 ADD MLOAD PUSH1 0x40 MLOAD DUP1 PUSH1 0xC0 ADD PUSH1 0x40 MSTORE DUP1 DUP10 PUSH1 0x60 ADD MLOAD DUP2 MSTORE PUSH1 0x20 ADD DUP10 PUSH1 0x80 ADD MLOAD DUP2 MSTORE PUSH1 0x20 ADD CALLER PUSH20 0xFFFFFFFFFFFFFFFFFFFFFFFFFFFFFFFFFFFFFFFF AND DUP2 MSTORE PUSH1 0x20 ADD DUP9 DUP2 MSTORE PUSH1 0x20 ADD DUP10 PUSH1 0xA0 ADD MLOAD PUSH3 0xFFFFFF AND DUP2 MSTORE PUSH1 0x20 ADD DUP10 PUSH1 0xC0 ADD MLOAD PUSH3 0xFFFFFF AND DUP2 MSTORE POP PUSH1 0x40 MLOAD PUSH1 0x20 ADD PUSH2 0x395 SWAP2 SWAP1 PUSH2 0x1DC3 JUMP JUMPDEST PUSH1 0x40 MLOAD PUSH1 0x20 DUP2 DUP4 SUB SUB DUP2 MSTORE SWAP1 PUSH1 0x40 MSTORE PUSH1 0x40 MLOAD DUP6 PUSH4 0xFFFFFFFF AND PUSH1 0xE0 SHL DUP2 MSTORE PUSH1 0x4 ADD PUSH2 0x3C3 SWAP5 SWAP4 SWAP3 SWAP2 SWAP1 PUSH2 0x1D40 JUMP JUMPDEST PUSH1 0x0 PUSH1 0x40 MLOAD DUP1 DUP4 SUB DUP2 PUSH1 0x0 DUP8 DUP1 EXTCODESIZE ISZERO DUP1 ISZERO PUSH2 0x3DD JUMPI PUSH1 0x0 DUP1 REVERT JUMPDEST POP GAS CALL ISZERO DUP1 ISZERO PUSH2 0x3F1 JUMPI RETURNDATASIZE PUSH1 0x0 DUP1 RETURNDATACOPY RETURNDATASIZE PUSH1 0x0 REVERT JUMPDEST POP POP POP POP POP POP POP JUMP JUMPDEST PUSH1 0x0 PUSH32 0x0 PUSH20 0xFFFFFFFFFFFFFFFFFFFFFFFFFFFFFFFFFFFFFFFF AND PUSH4 0x70A08231 ADDRESS PUSH1 0x40 MLOAD DUP3 PUSH4 0xFFFFFFFF AND PUSH1 0xE0 SHL DUP2 MSTORE PUSH1 0x4 ADD DUP1 DUP3 PUSH20 0xFFFFFFFFFFFFFFFFFFFFFFFFFFFFFFFFFFFFFFFF AND DUP2 MSTORE PUSH1 0x20 ADD SWAP2 POP POP PUSH1 0x20 PUSH1 0x40 MLOAD DUP1 DUP4 SUB DUP2 DUP7 DUP1 EXTCODESIZE ISZERO DUP1 ISZERO PUSH2 0x483 JUMPI PUSH1 0x0 DUP1 REVERT JUMPDEST POP GAS STATICCALL ISZERO DUP1 ISZERO PUSH2 0x497 JUMPI RETURNDATASIZE PUSH1 0x0 DUP1 RETURNDATACOPY RETURNDATASIZE PUSH1 0x0 REVERT JUMPDEST POP POP POP POP PUSH1 0x40 MLOAD RETURNDATASIZE PUSH1 0x20 DUP2 LT ISZERO PUSH2 0x4AD JUMPI PUSH1 0x0 DUP1 REVERT JUMPDEST DUP2 ADD SWAP1 DUP1 DUP1 MLOAD SWAP1 PUSH1 0x20 ADD SWAP1 SWAP3 SWAP2 SWAP1 POP POP POP SWAP1 POP DUP3 DUP2 LT ISZERO PUSH2 0x536 JUMPI PUSH1 0x40 MLOAD PUSH32 0x8C379A000000000000000000000000000000000000000000000000000000000 DUP2 MSTORE PUSH1 0x4 ADD DUP1 DUP1 PUSH1 0x20 ADD DUP3 DUP2 SUB DUP3 MSTORE PUSH1 0x12 DUP2 MSTORE PUSH1 0x20 ADD DUP1 PUSH32 0x496E73756666696369656E742057455448390000000000000000000000000000 DUP2 MSTORE POP PUSH1 0x20 ADD SWAP2 POP POP PUSH1 0x40 MLOAD DUP1 SWAP2 SUB SWAP1 REVERT JUMPDEST PUSH1 0x0 DUP2 GT ISZERO PUSH2 0x5D5 JUMPI PUSH32 0x0 PUSH20 0xFFFFFFFFFFFFFFFFFFFFFFFFFFFFFFFFFFFFFFFF AND PUSH4 0x2E1A7D4D DUP3 PUSH1 0x40 MLOAD DUP3 PUSH4 0xFFFFFFFF AND PUSH1 0xE0 SHL DUP2 MSTORE PUSH1 0x4 ADD DUP1 DUP3 DUP2 MSTORE PUSH1 0x20 ADD SWAP2 POP POP PUSH1 0x0 PUSH1 0x40 MLOAD DUP1 DUP4 SUB DUP2 PUSH1 0x0 DUP8 DUP1 EXTCODESIZE ISZERO DUP1 ISZERO PUSH2 0x5B2 JUMPI PUSH1 0x0 DUP1 REVERT JUMPDEST POP GAS CALL ISZERO DUP1 ISZERO PUSH2 0x5C6 JUMPI RETURNDATASIZE PUSH1 0x0 DUP1 RETURNDATACOPY RETURNDATASIZE PUSH1 0x0 REVERT JUMPDEST POP POP POP POP PUSH2 0x5D4 DUP3 DUP3 PUSH2 0xBD2 JUMP JUMPDEST JUMPDEST POP POP POP JUMP JUMPDEST PUSH32 0x0 DUP2 JUMP JUMPDEST PUSH32 0x0 DUP2 JUMP JUMPDEST PUSH32 0x0 DUP2 JUMP JUMPDEST PUSH1 0x0 DUP4 PUSH20 0xFFFFFFFFFFFFFFFFFFFFFFFFFFFFFFFFFFFFFFFF AND PUSH4 0x70A08231 ADDRESS PUSH1 0x40 MLOAD DUP3 PUSH4 0xFFFFFFFF AND PUSH1 0xE0 SHL DUP2 MSTORE PUSH1 0x4 ADD DUP1 DUP3 PUSH20 0xFFFFFFFFFFFFFFFFFFFFFFFFFFFFFFFFFFFFFFFF AND DUP2 MSTORE PUSH1 0x20 ADD SWAP2 POP POP PUSH1 0x20 PUSH1 0x40 MLOAD DUP1 DUP4 SUB DUP2 DUP7 DUP1 EXTCODESIZE ISZERO DUP1 ISZERO PUSH2 0x6AF JUMPI PUSH1 0x0 DUP1 REVERT JUMPDEST POP GAS STATICCALL ISZERO DUP1 ISZERO PUSH2 0x6C3 JUMPI RETURNDATASIZE PUSH1 0x0 DUP1 RETURNDATACOPY RETURNDATASIZE PUSH1 0x0 REVERT JUMPDEST POP POP POP POP PUSH1 0x40 MLOAD RETURNDATASIZE PUSH1 0x20 DUP2 LT ISZERO PUSH2 0x6D9 JUMPI PUSH1 0x0 DUP1 REVERT JUMPDEST DUP2 ADD SWAP1 DUP1 DUP1 MLOAD SWAP1 PUSH1 0x20 ADD SWAP1 SWAP3 SWAP2 SWAP1 POP POP POP SWAP1 POP DUP3 DUP2 LT ISZERO PUSH2 0x762 JUMPI PUSH1 0x40 MLOAD PUSH32 0x8C379A000000000000000000000000000000000000000000000000000000000 DUP2 MSTORE PUSH1 0x4 ADD DUP1 DUP1 PUSH1 0x20 ADD DUP3 DUP2 SUB DUP3 MSTORE PUSH1 0x12 DUP2 MSTORE PUSH1 0x20 ADD DUP1 PUSH32 0x496E73756666696369656E7420746F6B656E0000000000000000000000000000 DUP2 MSTORE POP PUSH1 0x20 ADD SWAP2 POP POP PUSH1 0x40 MLOAD DUP1 SWAP2 SUB SWAP1 REVERT JUMPDEST PUSH1 0x0 DUP2 GT ISZERO PUSH2 0x777 JUMPI PUSH2 0x776 DUP5 DUP4 DUP4 PUSH2 0xEA9 JUMP JUMPDEST JUMPDEST POP POP POP POP JUMP JUMPDEST PUSH1 0x0 DUP3 DUP3 DUP2 ADD SWAP1 PUSH2 0x78E SWAP2 SWAP1 PUSH2 0x19F0 JUMP JUMPDEST SWAP1 POP PUSH2 0x7BE PUSH32 0x0 DUP3 PUSH1 0x60 ADD MLOAD PUSH2 0x10AA JUMP JUMPDEST POP PUSH1 0x0 DUP2 PUSH1 0x60 ADD MLOAD PUSH1 0x0 ADD MLOAD SWAP1 POP PUSH1 0x0 DUP3 PUSH1 0x60 ADD MLOAD PUSH1 0x20 ADD MLOAD SWAP1 POP PUSH2 0x808 DUP3 PUSH32 0x0 DUP6 PUSH1 0x0 ADD MLOAD PUSH2 0x10F6 JUMP JUMPDEST PUSH2 0x837 DUP2 PUSH32 0x0 DUP6 PUSH1 0x20 ADD MLOAD PUSH2 0x10F6 JUMP JUMPDEST PUSH1 0x0 PUSH2 0x847 DUP5 PUSH1 0x20 ADD MLOAD DUP9 PUSH2 0x12F7 JUMP JUMPDEST SWAP1 POP PUSH1 0x0 PUSH2 0x859 DUP6 PUSH1 0x0 ADD MLOAD DUP11 PUSH2 0x12F7 JUMP JUMPDEST SWAP1 POP PUSH1 0x0 PUSH32 0x0 PUSH20 0xFFFFFFFFFFFFFFFFFFFFFFFFFFFFFFFFFFFFFFFF AND PUSH4 0x414BF389 PUSH1 0x40 MLOAD DUP1 PUSH2 0x100 ADD PUSH1 0x40 MSTORE DUP1 DUP8 PUSH20 0xFFFFFFFFFFFFFFFFFFFFFFFFFFFFFFFFFFFFFFFF AND DUP2 MSTORE PUSH1 0x20 ADD DUP9 PUSH20 0xFFFFFFFFFFFFFFFFFFFFFFFFFFFFFFFFFFFFFFFF AND DUP2 MSTORE PUSH1 0x20 ADD DUP10 PUSH1 0x80 ADD MLOAD PUSH3 0xFFFFFF AND DUP2 MSTORE PUSH1 0x20 ADD ADDRESS PUSH20 0xFFFFFFFFFFFFFFFFFFFFFFFFFFFFFFFFFFFFFFFF AND DUP2 MSTORE PUSH1 0x20 ADD TIMESTAMP DUP2 MSTORE PUSH1 0x20 ADD DUP10 PUSH1 0x20 ADD MLOAD DUP2 MSTORE PUSH1 0x20 ADD DUP6 DUP2 MSTORE PUSH1 0x20 ADD PUSH1 0x0 PUSH20 0xFFFFFFFFFFFFFFFFFFFFFFFFFFFFFFFFFFFFFFFF AND DUP2 MSTORE POP PUSH1 0x40 MLOAD DUP3 PUSH4 0xFFFFFFFF AND PUSH1 0xE0 SHL DUP2 MSTORE PUSH1 0x4 ADD PUSH2 0x955 SWAP2 SWAP1 PUSH2 0x1DA7 JUMP JUMPDEST PUSH1 0x20 PUSH1 0x40 MLOAD DUP1 DUP4 SUB DUP2 PUSH1 0x0 DUP8 DUP1 EXTCODESIZE ISZERO DUP1 ISZERO PUSH2 0x96F JUMPI PUSH1 0x0 DUP1 REVERT JUMPDEST POP GAS CALL ISZERO DUP1 ISZERO PUSH2 0x983 JUMPI RETURNDATASIZE PUSH1 0x0 DUP1 RETURNDATACOPY RETURNDATASIZE PUSH1 0x0 REVERT JUMPDEST POP POP POP POP PUSH1 0x40 MLOAD RETURNDATASIZE PUSH1 0x1F NOT PUSH1 0x1F DUP3 ADD AND DUP3 ADD DUP1 PUSH1 0x40 MSTORE POP DUP2 ADD SWAP1 PUSH2 0x9A7 SWAP2 SWAP1 PUSH2 0x1A43 JUMP JUMPDEST SWAP1 POP PUSH1 0x0 PUSH32 0x0 PUSH20 0xFFFFFFFFFFFFFFFFFFFFFFFFFFFFFFFFFFFFFFFF AND PUSH4 0x414BF389 PUSH1 0x40 MLOAD DUP1 PUSH2 0x100 ADD PUSH1 0x40 MSTORE DUP1 DUP10 PUSH20 0xFFFFFFFFFFFFFFFFFFFFFFFFFFFFFFFFFFFFFFFF AND DUP2 MSTORE PUSH1 0x20 ADD DUP9 PUSH20 0xFFFFFFFFFFFFFFFFFFFFFFFFFFFFFFFFFFFFFFFF AND DUP2 MSTORE PUSH1 0x20 ADD DUP11 PUSH1 0xA0 ADD MLOAD PUSH3 0xFFFFFF AND DUP2 MSTORE PUSH1 0x20 ADD ADDRESS PUSH20 0xFFFFFFFFFFFFFFFFFFFFFFFFFFFFFFFFFFFFFFFF AND DUP2 MSTORE PUSH1 0x20 ADD TIMESTAMP DUP2 MSTORE PUSH1 0x20 ADD DUP11 PUSH1 0x0 ADD MLOAD DUP2 MSTORE PUSH1 0x20 ADD DUP8 DUP2 MSTORE PUSH1 0x20 ADD PUSH1 0x0 PUSH20 0xFFFFFFFFFFFFFFFFFFFFFFFFFFFFFFFFFFFFFFFF AND DUP2 MSTORE POP PUSH1 0x40 MLOAD DUP3 PUSH4 0xFFFFFFFF AND PUSH1 0xE0 SHL DUP2 MSTORE PUSH1 0x4 ADD PUSH2 0xAA3 SWAP2 SWAP1 PUSH2 0x1DA7 JUMP JUMPDEST PUSH1 0x20 PUSH1 0x40 MLOAD DUP1 DUP4 SUB DUP2 PUSH1 0x0 DUP8 DUP1 EXTCODESIZE ISZERO DUP1 ISZERO PUSH2 0xABD JUMPI PUSH1 0x0 DUP1 REVERT JUMPDEST POP GAS CALL ISZERO DUP1 ISZERO PUSH2 0xAD1 JUMPI RETURNDATASIZE PUSH1 0x0 DUP1 RETURNDATACOPY RETURNDATASIZE PUSH1 0x0 REVERT JUMPDEST POP POP POP POP PUSH1 0x40 MLOAD RETURNDATASIZE PUSH1 0x1F NOT PUSH1 0x1F DUP3 ADD AND DUP3 ADD DUP1 PUSH1 0x40 MSTORE POP DUP2 ADD SWAP1 PUSH2 0xAF5 SWAP2 SWAP1 PUSH2 0x1A43 JUMP JUMPDEST SWAP1 POP PUSH1 0x0 PUSH2 0xB07 DUP9 PUSH1 0x0 ADD MLOAD DUP14 PUSH2 0x12F7 JUMP JUMPDEST SWAP1 POP PUSH1 0x0 PUSH2 0xB19 DUP10 PUSH1 0x20 ADD MLOAD DUP14 PUSH2 0x12F7 JUMP JUMPDEST SWAP1 POP PUSH2 0xB26 DUP9 ADDRESS DUP5 PUSH2 0x10F6 JUMP JUMPDEST PUSH2 0xB31 DUP8 ADDRESS DUP4 PUSH2 0x10F6 JUMP JUMPDEST PUSH1 0x0 DUP3 GT ISZERO PUSH2 0xB47 JUMPI PUSH2 0xB46 DUP9 ADDRESS CALLER DUP6 PUSH2 0x1311 JUMP JUMPDEST JUMPDEST PUSH1 0x0 DUP2 GT ISZERO PUSH2 0xB5D JUMPI PUSH2 0xB5C DUP8 ADDRESS CALLER DUP5 PUSH2 0x1311 JUMP JUMPDEST JUMPDEST DUP2 DUP5 GT ISZERO PUSH2 0xB90 JUMPI PUSH1 0x0 PUSH2 0xB71 DUP6 DUP5 PUSH2 0x151C JUMP JUMPDEST SWAP1 POP PUSH2 0xB7E DUP10 ADDRESS DUP4 PUSH2 0x10F6 JUMP JUMPDEST PUSH2 0xB8E DUP10 ADDRESS DUP13 PUSH1 0x40 ADD MLOAD DUP5 PUSH2 0x1311 JUMP JUMPDEST POP JUMPDEST DUP1 DUP4 GT ISZERO PUSH2 0xBC3 JUMPI PUSH1 0x0 PUSH2 0xBA4 DUP5 DUP4 PUSH2 0x151C JUMP JUMPDEST SWAP1 POP PUSH2 0xBB1 DUP10 ADDRESS DUP4 PUSH2 0x10F6 JUMP JUMPDEST PUSH2 0xBC1 DUP9 ADDRESS DUP13 PUSH1 0x40 ADD MLOAD DUP5 PUSH2 0x1311 JUMP JUMPDEST POP JUMPDEST POP POP POP POP POP POP POP POP POP POP POP POP POP JUMP JUMPDEST PUSH1 0x0 DUP3 PUSH20 0xFFFFFFFFFFFFFFFFFFFFFFFFFFFFFFFFFFFFFFFF AND DUP3 PUSH1 0x0 PUSH8 0xFFFFFFFFFFFFFFFF DUP2 GT DUP1 ISZERO PUSH2 0xC04 JUMPI PUSH1 0x0 DUP1 REVERT JUMPDEST POP PUSH1 0x40 MLOAD SWAP1 DUP1 DUP3 MSTORE DUP1 PUSH1 0x1F ADD PUSH1 0x1F NOT AND PUSH1 0x20 ADD DUP3 ADD PUSH1 0x40 MSTORE DUP1 ISZERO PUSH2 0xC37 JUMPI DUP2 PUSH1 0x20 ADD PUSH1 0x1 DUP3 MUL DUP1 CALLDATASIZE DUP4 CALLDATACOPY DUP1 DUP3 ADD SWAP2 POP POP SWAP1 POP JUMPDEST POP PUSH1 0x40 MLOAD DUP1 DUP3 DUP1 MLOAD SWAP1 PUSH1 0x20 ADD SWAP1 DUP1 DUP4 DUP4 JUMPDEST PUSH1 0x20 DUP4 LT PUSH2 0xC6B JUMPI DUP1 MLOAD DUP3 MSTORE PUSH1 0x20 DUP3 ADD SWAP2 POP PUSH1 0x20 DUP2 ADD SWAP1 POP PUSH1 0x20 DUP4 SUB SWAP3 POP PUSH2 0xC48 JUMP JUMPDEST PUSH1 0x1 DUP4 PUSH1 0x20 SUB PUSH2 0x100 EXP SUB DUP1 NOT DUP3 MLOAD AND DUP2 DUP5 MLOAD AND DUP1 DUP3 OR DUP6 MSTORE POP POP POP POP POP POP SWAP1 POP ADD SWAP2 POP POP PUSH1 0x0 PUSH1 0x40 MLOAD DUP1 DUP4 SUB DUP2 DUP6 DUP8 GAS CALL SWAP3 POP POP POP RETURNDATASIZE DUP1 PUSH1 0x0 DUP2 EQ PUSH2 0xCCD JUMPI PUSH1 0x40 MLOAD SWAP2 POP PUSH1 0x1F NOT PUSH1 0x3F RETURNDATASIZE ADD AND DUP3 ADD PUSH1 0x40 MSTORE RETURNDATASIZE DUP3 MSTORE RETURNDATASIZE PUSH1 0x0 PUSH1 0x20 DUP5 ADD RETURNDATACOPY PUSH2 0xCD2 JUMP JUMPDEST PUSH1 0x60 SWAP2 POP JUMPDEST POP POP SWAP1 POP DUP1 PUSH2 0xD49 JUMPI PUSH1 0x40 MLOAD PUSH32 0x8C379A000000000000000000000000000000000000000000000000000000000 DUP2 MSTORE PUSH1 0x4 ADD DUP1 DUP1 PUSH1 0x20 ADD DUP3 DUP2 SUB DUP3 MSTORE PUSH1 0x3 DUP2 MSTORE PUSH1 0x20 ADD DUP1 PUSH32 0x5354450000000000000000000000000000000000000000000000000000000000 DUP2 MSTORE POP PUSH1 0x20 ADD SWAP2 POP POP PUSH1 0x40 MLOAD DUP1 SWAP2 SUB SWAP1 REVERT JUMPDEST POP POP POP JUMP JUMPDEST PUSH1 0x0 DUP2 PUSH1 0x20 ADD MLOAD PUSH20 0xFFFFFFFFFFFFFFFFFFFFFFFFFFFFFFFFFFFFFFFF AND DUP3 PUSH1 0x0 ADD MLOAD PUSH20 0xFFFFFFFFFFFFFFFFFFFFFFFFFFFFFFFFFFFFFFFF AND LT PUSH2 0xD90 JUMPI PUSH1 0x0 DUP1 REVERT JUMPDEST DUP3 DUP3 PUSH1 0x0 ADD MLOAD DUP4 PUSH1 0x20 ADD MLOAD DUP5 PUSH1 0x40 ADD MLOAD PUSH1 0x40 MLOAD PUSH1 0x20 ADD DUP1 DUP5 PUSH20 0xFFFFFFFFFFFFFFFFFFFFFFFFFFFFFFFFFFFFFFFF AND DUP2 MSTORE PUSH1 0x20 ADD DUP4 PUSH20 0xFFFFFFFFFFFFFFFFFFFFFFFFFFFFFFFFFFFFFFFF AND DUP2 MSTORE PUSH1 0x20 ADD DUP3 PUSH3 0xFFFFFF AND DUP2 MSTORE PUSH1 0x20 ADD SWAP4 POP POP POP POP PUSH1 0x40 MLOAD PUSH1 0x20 DUP2 DUP4 SUB SUB DUP2 MSTORE SWAP1 PUSH1 0x40 MSTORE DUP1 MLOAD SWAP1 PUSH1 0x20 ADD KECCAK256 PUSH32 0xE34F199B19B2B4F47F68442619D555527D244F78A3297EA89325F843F87B8B54 PUSH1 0x0 SHL PUSH1 0x40 MLOAD PUSH1 0x20 ADD DUP1 DUP1 PUSH32 0xFF00000000000000000000000000000000000000000000000000000000000000 DUP2 MSTORE POP PUSH1 0x1 ADD DUP5 PUSH20 0xFFFFFFFFFFFFFFFFFFFFFFFFFFFFFFFFFFFFFFFF AND PUSH1 0x60 SHL DUP2 MSTORE PUSH1 0x14 ADD DUP4 DUP2 MSTORE PUSH1 0x20 ADD DUP3 DUP2 MSTORE PUSH1 0x20 ADD SWAP4 POP POP POP POP PUSH1 0x40 MLOAD PUSH1 0x20 DUP2 DUP4 SUB SUB DUP2 MSTORE SWAP1 PUSH1 0x40 MSTORE DUP1 MLOAD SWAP1 PUSH1 0x20 ADD KECCAK256 PUSH1 0x0 SHR SWAP1 POP SWAP3 SWAP2 POP POP JUMP JUMPDEST PUSH1 0x0 DUP1 DUP5 PUSH20 0xFFFFFFFFFFFFFFFFFFFFFFFFFFFFFFFFFFFFFFFF AND PUSH4 0xA9059CBB PUSH1 0xE0 SHL DUP6 DUP6 PUSH1 0x40 MLOAD PUSH1 0x24 ADD DUP1 DUP4 PUSH20 0xFFFFFFFFFFFFFFFFFFFFFFFFFFFFFFFFFFFFFFFF AND DUP2 MSTORE PUSH1 0x20 ADD DUP3 DUP2 MSTORE PUSH1 0x20 ADD SWAP3 POP POP POP PUSH1 0x40 MLOAD PUSH1 0x20 DUP2 DUP4 SUB SUB DUP2 MSTORE SWAP1 PUSH1 0x40 MSTORE SWAP1 PUSH28 0xFFFFFFFFFFFFFFFFFFFFFFFFFFFFFFFFFFFFFFFFFFFFFFFFFFFFFFFF NOT AND PUSH1 0x20 DUP3 ADD DUP1 MLOAD PUSH28 0xFFFFFFFFFFFFFFFFFFFFFFFFFFFFFFFFFFFFFFFFFFFFFFFFFFFFFFFF DUP4 DUP2 DUP4 AND OR DUP4 MSTORE POP POP POP POP PUSH1 0x40 MLOAD DUP1 DUP3 DUP1 MLOAD SWAP1 PUSH1 0x20 ADD SWAP1 DUP1 DUP4 DUP4 JUMPDEST PUSH1 0x20 DUP4 LT PUSH2 0xF8A JUMPI DUP1 MLOAD DUP3 MSTORE PUSH1 0x20 DUP3 ADD SWAP2 POP PUSH1 0x20 DUP2 ADD SWAP1 POP PUSH1 0x20 DUP4 SUB SWAP3 POP PUSH2 0xF67 JUMP JUMPDEST PUSH1 0x1 DUP4 PUSH1 0x20 SUB PUSH2 0x100 EXP SUB DUP1 NOT DUP3 MLOAD AND DUP2 DUP5 MLOAD AND DUP1 DUP3 OR DUP6 MSTORE POP POP POP POP POP POP SWAP1 POP ADD SWAP2 POP POP PUSH1 0x0 PUSH1 0x40 MLOAD DUP1 DUP4 SUB DUP2 PUSH1 0x0 DUP7 GAS CALL SWAP2 POP POP RETURNDATASIZE DUP1 PUSH1 0x0 DUP2 EQ PUSH2 0xFEC JUMPI PUSH1 0x40 MLOAD SWAP2 POP PUSH1 0x1F NOT PUSH1 0x3F RETURNDATASIZE ADD AND DUP3 ADD PUSH1 0x40 MSTORE RETURNDATASIZE DUP3 MSTORE RETURNDATASIZE PUSH1 0x0 PUSH1 0x20 DUP5 ADD RETURNDATACOPY PUSH2 0xFF1 JUMP JUMPDEST PUSH1 0x60 SWAP2 POP JUMPDEST POP SWAP2 POP SWAP2 POP DUP2 DUP1 ISZERO PUSH2 0x1031 JUMPI POP PUSH1 0x0 DUP2 MLOAD EQ DUP1 PUSH2 0x1030 JUMPI POP DUP1 DUP1 PUSH1 0x20 ADD SWAP1 MLOAD PUSH1 0x20 DUP2 LT ISZERO PUSH2 0x101E JUMPI PUSH1 0x0 DUP1 REVERT JUMPDEST DUP2 ADD SWAP1 DUP1 DUP1 MLOAD SWAP1 PUSH1 0x20 ADD SWAP1 SWAP3 SWAP2 SWAP1 POP POP POP JUMPDEST JUMPDEST PUSH2 0x10A3 JUMPI PUSH1 0x40 MLOAD PUSH32 0x8C379A000000000000000000000000000000000000000000000000000000000 DUP2 MSTORE PUSH1 0x4 ADD DUP1 DUP1 PUSH1 0x20 ADD DUP3 DUP2 SUB DUP3 MSTORE PUSH1 0x2 DUP2 MSTORE PUSH1 0x20 ADD DUP1 PUSH32 0x5354000000000000000000000000000000000000000000000000000000000000 DUP2 MSTORE POP PUSH1 0x20 ADD SWAP2 POP POP PUSH1 0x40 MLOAD DUP1 SWAP2 SUB SWAP1 REVERT JUMPDEST POP POP POP POP POP JUMP JUMPDEST PUSH1 0x0 PUSH2 0x10B6 DUP4 DUP4 PUSH2 0xD4E JUMP JUMPDEST SWAP1 POP DUP1 PUSH20 0xFFFFFFFFFFFFFFFFFFFFFFFFFFFFFFFFFFFFFFFF AND CALLER PUSH20 0xFFFFFFFFFFFFFFFFFFFFFFFFFFFFFFFFFFFFFFFF AND EQ PUSH2 0x10F0 JUMPI PUSH1 0x0 DUP1 REVERT JUMPDEST SWAP3 SWAP2 POP POP JUMP JUMPDEST PUSH1 0x0 DUP1 DUP5 PUSH20 0xFFFFFFFFFFFFFFFFFFFFFFFFFFFFFFFFFFFFFFFF AND PUSH4 0x95EA7B3 PUSH1 0xE0 SHL DUP6 DUP6 PUSH1 0x40 MLOAD PUSH1 0x24 ADD DUP1 DUP4 PUSH20 0xFFFFFFFFFFFFFFFFFFFFFFFFFFFFFFFFFFFFFFFF AND DUP2 MSTORE PUSH1 0x20 ADD DUP3 DUP2 MSTORE PUSH1 0x20 ADD SWAP3 POP POP POP PUSH1 0x40 MLOAD PUSH1 0x20 DUP2 DUP4 SUB SUB DUP2 MSTORE SWAP1 PUSH1 0x40 MSTORE SWAP1 PUSH28 0xFFFFFFFFFFFFFFFFFFFFFFFFFFFFFFFFFFFFFFFFFFFFFFFFFFFFFFFF NOT AND PUSH1 0x20 DUP3 ADD DUP1 MLOAD PUSH28 0xFFFFFFFFFFFFFFFFFFFFFFFFFFFFFFFFFFFFFFFFFFFFFFFFFFFFFFFF DUP4 DUP2 DUP4 AND OR DUP4 MSTORE POP POP POP POP PUSH1 0x40 MLOAD DUP1 DUP3 DUP1 MLOAD SWAP1 PUSH1 0x20 ADD SWAP1 DUP1 DUP4 DUP4 JUMPDEST PUSH1 0x20 DUP4 LT PUSH2 0x11D7 JUMPI DUP1 MLOAD DUP3 MSTORE PUSH1 0x20 DUP3 ADD SWAP2 POP PUSH1 0x20 DUP2 ADD SWAP1 POP PUSH1 0x20 DUP4 SUB SWAP3 POP PUSH2 0x11B4 JUMP JUMPDEST PUSH1 0x1 DUP4 PUSH1 0x20 SUB PUSH2 0x100 EXP SUB DUP1 NOT DUP3 MLOAD AND DUP2 DUP5 MLOAD AND DUP1 DUP3 OR DUP6 MSTORE POP POP POP POP POP POP SWAP1 POP ADD SWAP2 POP POP PUSH1 0x0 PUSH1 0x40 MLOAD DUP1 DUP4 SUB DUP2 PUSH1 0x0 DUP7 GAS CALL SWAP2 POP POP RETURNDATASIZE DUP1 PUSH1 0x0 DUP2 EQ PUSH2 0x1239 JUMPI PUSH1 0x40 MLOAD SWAP2 POP PUSH1 0x1F NOT PUSH1 0x3F RETURNDATASIZE ADD AND DUP3 ADD PUSH1 0x40 MSTORE RETURNDATASIZE DUP3 MSTORE RETURNDATASIZE PUSH1 0x0 PUSH1 0x20 DUP5 ADD RETURNDATACOPY PUSH2 0x123E JUMP JUMPDEST PUSH1 0x60 SWAP2 POP JUMPDEST POP SWAP2 POP SWAP2 POP DUP2 DUP1 ISZERO PUSH2 0x127E JUMPI POP PUSH1 0x0 DUP2 MLOAD EQ DUP1 PUSH2 0x127D JUMPI POP DUP1 DUP1 PUSH1 0x20 ADD SWAP1 MLOAD PUSH1 0x20 DUP2 LT ISZERO PUSH2 0x126B JUMPI PUSH1 0x0 DUP1 REVERT JUMPDEST DUP2 ADD SWAP1 DUP1 DUP1 MLOAD SWAP1 PUSH1 0x20 ADD SWAP1 SWAP3 SWAP2 SWAP1 POP POP POP JUMPDEST JUMPDEST PUSH2 0x12F0 JUMPI PUSH1 0x40 MLOAD PUSH32 0x8C379A000000000000000000000000000000000000000000000000000000000 DUP2 MSTORE PUSH1 0x4 ADD DUP1 DUP1 PUSH1 0x20 ADD DUP3 DUP2 SUB DUP3 MSTORE PUSH1 0x2 DUP2 MSTORE PUSH1 0x20 ADD DUP1 PUSH32 0x5341000000000000000000000000000000000000000000000000000000000000 DUP2 MSTORE POP PUSH1 0x20 ADD SWAP2 POP POP PUSH1 0x40 MLOAD DUP1 SWAP2 SUB SWAP1 REVERT JUMPDEST POP POP POP POP POP JUMP JUMPDEST PUSH1 0x0 DUP3 DUP3 DUP5 ADD SWAP2 POP DUP2 LT ISZERO PUSH2 0x130B JUMPI PUSH1 0x0 DUP1 REVERT JUMPDEST SWAP3 SWAP2 POP POP JUMP JUMPDEST PUSH32 0x0 PUSH20 0xFFFFFFFFFFFFFFFFFFFFFFFFFFFFFFFFFFFFFFFF AND DUP5 PUSH20 0xFFFFFFFFFFFFFFFFFFFFFFFFFFFFFFFFFFFFFFFF AND EQ DUP1 ISZERO PUSH2 0x136C JUMPI POP DUP1 SELFBALANCE LT ISZERO JUMPDEST ISZERO PUSH2 0x14C4 JUMPI PUSH32 0x0 PUSH20 0xFFFFFFFFFFFFFFFFFFFFFFFFFFFFFFFFFFFFFFFF AND PUSH4 0xD0E30DB0 DUP3 PUSH1 0x40 MLOAD DUP3 PUSH4 0xFFFFFFFF AND PUSH1 0xE0 SHL DUP2 MSTORE PUSH1 0x4 ADD PUSH1 0x0 PUSH1 0x40 MLOAD DUP1 DUP4 SUB DUP2 DUP6 DUP9 DUP1 EXTCODESIZE ISZERO DUP1 ISZERO PUSH2 0x13D9 JUMPI PUSH1 0x0 DUP1 REVERT JUMPDEST POP GAS CALL ISZERO DUP1 ISZERO PUSH2 0x13ED JUMPI RETURNDATASIZE PUSH1 0x0 DUP1 RETURNDATACOPY RETURNDATASIZE PUSH1 0x0 REVERT JUMPDEST POP POP POP POP POP PUSH32 0x0 PUSH20 0xFFFFFFFFFFFFFFFFFFFFFFFFFFFFFFFFFFFFFFFF AND PUSH4 0xA9059CBB DUP4 DUP4 PUSH1 0x40 MLOAD DUP4 PUSH4 0xFFFFFFFF AND PUSH1 0xE0 SHL DUP2 MSTORE PUSH1 0x4 ADD DUP1 DUP4 PUSH20 0xFFFFFFFFFFFFFFFFFFFFFFFFFFFFFFFFFFFFFFFF AND DUP2 MSTORE PUSH1 0x20 ADD DUP3 DUP2 MSTORE PUSH1 0x20 ADD SWAP3 POP POP POP PUSH1 0x20 PUSH1 0x40 MLOAD DUP1 DUP4 SUB DUP2 PUSH1 0x0 DUP8 DUP1 EXTCODESIZE ISZERO DUP1 ISZERO PUSH2 0x1483 JUMPI PUSH1 0x0 DUP1 REVERT JUMPDEST POP GAS CALL ISZERO DUP1 ISZERO PUSH2 0x1497 JUMPI RETURNDATASIZE PUSH1 0x0 DUP1 RETURNDATACOPY RETURNDATASIZE PUSH1 0x0 REVERT JUMPDEST POP POP POP POP PUSH1 0x40 MLOAD RETURNDATASIZE PUSH1 0x20 DUP2 LT ISZERO PUSH2 0x14AD JUMPI PUSH1 0x0 DUP1 REVERT JUMPDEST DUP2 ADD SWAP1 DUP1 DUP1 MLOAD SWAP1 PUSH1 0x20 ADD SWAP1 SWAP3 SWAP2 SWAP1 POP POP POP POP PUSH2 0x1516 JUMP JUMPDEST ADDRESS PUSH20 0xFFFFFFFFFFFFFFFFFFFFFFFFFFFFFFFFFFFFFFFF AND DUP4 PUSH20 0xFFFFFFFFFFFFFFFFFFFFFFFFFFFFFFFFFFFFFFFF AND EQ ISZERO PUSH2 0x1508 JUMPI PUSH2 0x1503 DUP5 DUP4 DUP4 PUSH2 0xEA9 JUMP JUMPDEST PUSH2 0x1515 JUMP JUMPDEST PUSH2 0x1514 DUP5 DUP5 DUP5 DUP5 PUSH2 0x1536 JUMP JUMPDEST JUMPDEST JUMPDEST POP POP POP POP JUMP JUMPDEST PUSH1 0x0 DUP3 DUP3 DUP5 SUB SWAP2 POP DUP2 GT ISZERO PUSH2 0x1530 JUMPI PUSH1 0x0 DUP1 REVERT JUMPDEST SWAP3 SWAP2 POP POP JUMP JUMPDEST PUSH1 0x0 DUP1 DUP6 PUSH20 0xFFFFFFFFFFFFFFFFFFFFFFFFFFFFFFFFFFFFFFFF AND PUSH4 0x23B872DD PUSH1 0xE0 SHL DUP7 DUP7 DUP7 PUSH1 0x40 MLOAD PUSH1 0x24 ADD DUP1 DUP5 PUSH20 0xFFFFFFFFFFFFFFFFFFFFFFFFFFFFFFFFFFFFFFFF AND DUP2 MSTORE PUSH1 0x20 ADD DUP4 PUSH20 0xFFFFFFFFFFFFFFFFFFFFFFFFFFFFFFFFFFFFFFFF AND DUP2 MSTORE PUSH1 0x20 ADD DUP3 DUP2 MSTORE PUSH1 0x20 ADD SWAP4 POP POP POP POP PUSH1 0x40 MLOAD PUSH1 0x20 DUP2 DUP4 SUB SUB DUP2 MSTORE SWAP1 PUSH1 0x40 MSTORE SWAP1 PUSH28 0xFFFFFFFFFFFFFFFFFFFFFFFFFFFFFFFFFFFFFFFFFFFFFFFFFFFFFFFF NOT AND PUSH1 0x20 DUP3 ADD DUP1 MLOAD PUSH28 0xFFFFFFFFFFFFFFFFFFFFFFFFFFFFFFFFFFFFFFFFFFFFFFFFFFFFFFFF DUP4 DUP2 DUP4 AND OR DUP4 MSTORE POP POP POP POP PUSH1 0x40 MLOAD DUP1 DUP3 DUP1 MLOAD SWAP1 PUSH1 0x20 ADD SWAP1 DUP1 DUP4 DUP4 JUMPDEST PUSH1 0x20 DUP4 LT PUSH2 0x1635 JUMPI DUP1 MLOAD DUP3 MSTORE PUSH1 0x20 DUP3 ADD SWAP2 POP PUSH1 0x20 DUP2 ADD SWAP1 POP PUSH1 0x20 DUP4 SUB SWAP3 POP PUSH2 0x1612 JUMP JUMPDEST PUSH1 0x1 DUP4 PUSH1 0x20 SUB PUSH2 0x100 EXP SUB DUP1 NOT DUP3 MLOAD AND DUP2 DUP5 MLOAD AND DUP1 DUP3 OR DUP6 MSTORE POP POP POP POP POP POP SWAP1 POP ADD SWAP2 POP POP PUSH1 0x0 PUSH1 0x40 MLOAD DUP1 DUP4 SUB DUP2 PUSH1 0x0 DUP7 GAS CALL SWAP2 POP POP RETURNDATASIZE DUP1 PUSH1 0x0 DUP2 EQ PUSH2 0x1697 JUMPI PUSH1 0x40 MLOAD SWAP2 POP PUSH1 0x1F NOT PUSH1 0x3F RETURNDATASIZE ADD AND DUP3 ADD PUSH1 0x40 MSTORE RETURNDATASIZE DUP3 MSTORE RETURNDATASIZE PUSH1 0x0 PUSH1 0x20 DUP5 ADD RETURNDATACOPY PUSH2 0x169C JUMP JUMPDEST PUSH1 0x60 SWAP2 POP JUMPDEST POP SWAP2 POP SWAP2 POP DUP2 DUP1 ISZERO PUSH2 0x16DC JUMPI POP PUSH1 0x0 DUP2 MLOAD EQ DUP1 PUSH2 0x16DB JUMPI POP DUP1 DUP1 PUSH1 0x20 ADD SWAP1 MLOAD PUSH1 0x20 DUP2 LT ISZERO PUSH2 0x16C9 JUMPI PUSH1 0x0 DUP1 REVERT JUMPDEST DUP2 ADD SWAP1 DUP1 DUP1 MLOAD SWAP1 PUSH1 0x20 ADD SWAP1 SWAP3 SWAP2 SWAP1 POP POP POP JUMPDEST JUMPDEST PUSH2 0x174E JUMPI PUSH1 0x40 MLOAD PUSH32 0x8C379A000000000000000000000000000000000000000000000000000000000 DUP2 MSTORE PUSH1 0x4 ADD DUP1 DUP1 PUSH1 0x20 ADD DUP3 DUP2 SUB DUP3 MSTORE PUSH1 0x3 DUP2 MSTORE PUSH1 0x20 ADD DUP1 PUSH32 0x5354460000000000000000000000000000000000000000000000000000000000 DUP2 MSTORE POP PUSH1 0x20 ADD SWAP2 POP POP PUSH1 0x40 MLOAD DUP1 SWAP2 SUB SWAP1 REVERT JUMPDEST POP POP POP POP POP POP JUMP JUMPDEST PUSH1 0x0 DUP2 CALLDATALOAD SWAP1 POP PUSH2 0x1765 DUP2 PUSH2 0x1F17 JUMP JUMPDEST SWAP3 SWAP2 POP POP JUMP JUMPDEST PUSH1 0x0 DUP1 DUP4 PUSH1 0x1F DUP5 ADD SLT PUSH2 0x177D JUMPI PUSH1 0x0 DUP1 REVERT JUMPDEST DUP3 CALLDATALOAD SWAP1 POP PUSH8 0xFFFFFFFFFFFFFFFF DUP2 GT ISZERO PUSH2 0x1796 JUMPI PUSH1 0x0 DUP1 REVERT JUMPDEST PUSH1 0x20 DUP4 ADD SWAP2 POP DUP4 PUSH1 0x1 DUP3 MUL DUP4 ADD GT ISZERO PUSH2 0x17AE JUMPI PUSH1 0x0 DUP1 REVERT JUMPDEST SWAP3 POP SWAP3 SWAP1 POP JUMP JUMPDEST PUSH1 0x0 PUSH2 0x100 DUP3 DUP5 SUB SLT ISZERO PUSH2 0x17C8 JUMPI PUSH1 0x0 DUP1 REVERT JUMPDEST PUSH2 0x17D2 PUSH1 0xC0 PUSH2 0x1DDF JUMP JUMPDEST SWAP1 POP PUSH1 0x0 PUSH2 0x17E2 DUP5 DUP3 DUP6 ADD PUSH2 0x1977 JUMP JUMPDEST PUSH1 0x0 DUP4 ADD MSTORE POP PUSH1 0x20 PUSH2 0x17F6 DUP5 DUP3 DUP6 ADD PUSH2 0x1977 JUMP JUMPDEST PUSH1 0x20 DUP4 ADD MSTORE POP PUSH1 0x40 PUSH2 0x180A DUP5 DUP3 DUP6 ADD PUSH2 0x1756 JUMP JUMPDEST PUSH1 0x40 DUP4 ADD MSTORE POP PUSH1 0x60 PUSH2 0x181E DUP5 DUP3 DUP6 ADD PUSH2 0x1902 JUMP JUMPDEST PUSH1 0x60 DUP4 ADD MSTORE POP PUSH1 0xC0 PUSH2 0x1832 DUP5 DUP3 DUP6 ADD PUSH2 0x1962 JUMP JUMPDEST PUSH1 0x80 DUP4 ADD MSTORE POP PUSH1 0xE0 PUSH2 0x1846 DUP5 DUP3 DUP6 ADD PUSH2 0x1962 JUMP JUMPDEST PUSH1 0xA0 DUP4 ADD MSTORE POP SWAP3 SWAP2 POP POP JUMP JUMPDEST PUSH1 0x0 PUSH1 0xE0 DUP3 DUP5 SUB SLT ISZERO PUSH2 0x1864 JUMPI PUSH1 0x0 DUP1 REVERT JUMPDEST PUSH2 0x186E PUSH1 0xE0 PUSH2 0x1DDF JUMP JUMPDEST SWAP1 POP PUSH1 0x0 PUSH2 0x187E DUP5 DUP3 DUP6 ADD PUSH2 0x1756 JUMP JUMPDEST PUSH1 0x0 DUP4 ADD MSTORE POP PUSH1 0x20 PUSH2 0x1892 DUP5 DUP3 DUP6 ADD PUSH2 0x1756 JUMP JUMPDEST PUSH1 0x20 DUP4 ADD MSTORE POP PUSH1 0x40 PUSH2 0x18A6 DUP5 DUP3 DUP6 ADD PUSH2 0x1962 JUMP JUMPDEST PUSH1 0x40 DUP4 ADD MSTORE POP PUSH1 0x60 PUSH2 0x18BA DUP5 DUP3 DUP6 ADD PUSH2 0x1977 JUMP JUMPDEST PUSH1 0x60 DUP4 ADD MSTORE POP PUSH1 0x80 PUSH2 0x18CE DUP5 DUP3 DUP6 ADD PUSH2 0x1977 JUMP JUMPDEST PUSH1 0x80 DUP4 ADD MSTORE POP PUSH1 0xA0 PUSH2 0x18E2 DUP5 DUP3 DUP6 ADD PUSH2 0x1962 JUMP JUMPDEST PUSH1 0xA0 DUP4 ADD MSTORE POP PUSH1 0xC0 PUSH2 0x18F6 DUP5 DUP3 DUP6 ADD PUSH2 0x1962 JUMP JUMPDEST PUSH1 0xC0 DUP4 ADD MSTORE POP SWAP3 SWAP2 POP POP JUMP JUMPDEST PUSH1 0x0 PUSH1 0x60 DUP3 DUP5 SUB SLT ISZERO PUSH2 0x1914 JUMPI PUSH1 0x0 DUP1 REVERT JUMPDEST PUSH2 0x191E PUSH1 0x60 PUSH2 0x1DDF JUMP JUMPDEST SWAP1 POP PUSH1 0x0 PUSH2 0x192E DUP5 DUP3 DUP6 ADD PUSH2 0x1756 JUMP JUMPDEST PUSH1 0x0 DUP4 ADD MSTORE POP PUSH1 0x20 PUSH2 0x1942 DUP5 DUP3 DUP6 ADD PUSH2 0x1756 JUMP JUMPDEST PUSH1 0x20 DUP4 ADD MSTORE POP PUSH1 0x40 PUSH2 0x1956 DUP5 DUP3 DUP6 ADD PUSH2 0x1962 JUMP JUMPDEST PUSH1 0x40 DUP4 ADD MSTORE POP SWAP3 SWAP2 POP POP JUMP JUMPDEST PUSH1 0x0 DUP2 CALLDATALOAD SWAP1 POP PUSH2 0x1971 DUP2 PUSH2 0x1F2E JUMP JUMPDEST SWAP3 SWAP2 POP POP JUMP JUMPDEST PUSH1 0x0 DUP2 CALLDATALOAD SWAP1 POP PUSH2 0x1986 DUP2 PUSH2 0x1F45 JUMP JUMPDEST SWAP3 SWAP2 POP POP JUMP JUMPDEST PUSH1 0x0 DUP2 MLOAD SWAP1 POP PUSH2 0x199B DUP2 PUSH2 0x1F45 JUMP JUMPDEST SWAP3 SWAP2 POP POP JUMP JUMPDEST PUSH1 0x0 DUP1 PUSH1 0x0 PUSH1 0x60 DUP5 DUP7 SUB SLT ISZERO PUSH2 0x19B6 JUMPI PUSH1 0x0 DUP1 REVERT JUMPDEST PUSH1 0x0 PUSH2 0x19C4 DUP7 DUP3 DUP8 ADD PUSH2 0x1756 JUMP JUMPDEST SWAP4 POP POP PUSH1 0x20 PUSH2 0x19D5 DUP7 DUP3 DUP8 ADD PUSH2 0x1977 JUMP JUMPDEST SWAP3 POP POP PUSH1 0x40 PUSH2 0x19E6 DUP7 DUP3 DUP8 ADD PUSH2 0x1756 JUMP JUMPDEST SWAP2 POP POP SWAP3 POP SWAP3 POP SWAP3 JUMP JUMPDEST PUSH1 0x0 PUSH2 0x100 DUP3 DUP5 SUB SLT ISZERO PUSH2 0x1A03 JUMPI PUSH1 0x0 DUP1 REVERT JUMPDEST PUSH1 0x0 PUSH2 0x1A11 DUP5 DUP3 DUP6 ADD PUSH2 0x17B5 JUMP JUMPDEST SWAP2 POP POP SWAP3 SWAP2 POP POP JUMP JUMPDEST PUSH1 0x0 PUSH1 0xE0 DUP3 DUP5 SUB SLT ISZERO PUSH2 0x1A2C JUMPI PUSH1 0x0 DUP1 REVERT JUMPDEST PUSH1 0x0 PUSH2 0x1A3A DUP5 DUP3 DUP6 ADD PUSH2 0x1852 JUMP JUMPDEST SWAP2 POP POP SWAP3 SWAP2 POP POP JUMP JUMPDEST PUSH1 0x0 PUSH1 0x20 DUP3 DUP5 SUB SLT ISZERO PUSH2 0x1A55 JUMPI PUSH1 0x0 DUP1 REVERT JUMPDEST PUSH1 0x0 PUSH2 0x1A63 DUP5 DUP3 DUP6 ADD PUSH2 0x198C JUMP JUMPDEST SWAP2 POP POP SWAP3 SWAP2 POP POP JUMP JUMPDEST PUSH1 0x0 DUP1 PUSH1 0x40 DUP4 DUP6 SUB SLT ISZERO PUSH2 0x1A7F JUMPI PUSH1 0x0 DUP1 REVERT JUMPDEST PUSH1 0x0 PUSH2 0x1A8D DUP6 DUP3 DUP7 ADD PUSH2 0x1977 JUMP JUMPDEST SWAP3 POP POP PUSH1 0x20 PUSH2 0x1A9E DUP6 DUP3 DUP7 ADD PUSH2 0x1756 JUMP JUMPDEST SWAP2 POP POP SWAP3 POP SWAP3 SWAP1 POP JUMP JUMPDEST PUSH1 0x0 DUP1 PUSH1 0x0 DUP1 PUSH1 0x60 DUP6 DUP8 SUB SLT ISZERO PUSH2 0x1ABE JUMPI PUSH1 0x0 DUP1 REVERT JUMPDEST PUSH1 0x0 PUSH2 0x1ACC DUP8 DUP3 DUP9 ADD PUSH2 0x1977 JUMP JUMPDEST SWAP5 POP POP PUSH1 0x20 PUSH2 0x1ADD DUP8 DUP3 DUP9 ADD PUSH2 0x1977 JUMP JUMPDEST SWAP4 POP POP PUSH1 0x40 DUP6 ADD CALLDATALOAD PUSH8 0xFFFFFFFFFFFFFFFF DUP2 GT ISZERO PUSH2 0x1AFA JUMPI PUSH1 0x0 DUP1 REVERT JUMPDEST PUSH2 0x1B06 DUP8 DUP3 DUP9 ADD PUSH2 0x176B JUMP JUMPDEST SWAP3 POP SWAP3 POP POP SWAP3 SWAP6 SWAP2 SWAP5 POP SWAP3 POP JUMP JUMPDEST PUSH2 0x1B1D DUP2 PUSH2 0x1E77 JUMP JUMPDEST DUP3 MSTORE POP POP JUMP JUMPDEST PUSH2 0x1B2C DUP2 PUSH2 0x1E2C JUMP JUMPDEST DUP3 MSTORE POP POP JUMP JUMPDEST PUSH2 0x1B3B DUP2 PUSH2 0x1E2C JUMP JUMPDEST DUP3 MSTORE POP POP JUMP JUMPDEST PUSH1 0x0 PUSH2 0x1B4C DUP3 PUSH2 0x1E10 JUMP JUMPDEST PUSH2 0x1B56 DUP2 DUP6 PUSH2 0x1E1B JUMP JUMPDEST SWAP4 POP PUSH2 0x1B66 DUP2 DUP6 PUSH1 0x20 DUP7 ADD PUSH2 0x1ED1 JUMP JUMPDEST PUSH2 0x1B6F DUP2 PUSH2 0x1F06 JUMP JUMPDEST DUP5 ADD SWAP2 POP POP SWAP3 SWAP2 POP POP JUMP JUMPDEST PUSH2 0x1B83 DUP2 PUSH2 0x1E89 JUMP JUMPDEST DUP3 MSTORE POP POP JUMP JUMPDEST PUSH2 0x100 DUP3 ADD PUSH1 0x0 DUP3 ADD MLOAD PUSH2 0x1BA0 PUSH1 0x0 DUP6 ADD DUP3 PUSH2 0x1B23 JUMP JUMPDEST POP PUSH1 0x20 DUP3 ADD MLOAD PUSH2 0x1BB3 PUSH1 0x20 DUP6 ADD DUP3 PUSH2 0x1B23 JUMP JUMPDEST POP PUSH1 0x40 DUP3 ADD MLOAD PUSH2 0x1BC6 PUSH1 0x40 DUP6 ADD DUP3 PUSH2 0x1CF8 JUMP JUMPDEST POP PUSH1 0x60 DUP3 ADD MLOAD PUSH2 0x1BD9 PUSH1 0x60 DUP6 ADD DUP3 PUSH2 0x1B23 JUMP JUMPDEST POP PUSH1 0x80 DUP3 ADD MLOAD PUSH2 0x1BEC PUSH1 0x80 DUP6 ADD DUP3 PUSH2 0x1D07 JUMP JUMPDEST POP PUSH1 0xA0 DUP3 ADD MLOAD PUSH2 0x1BFF PUSH1 0xA0 DUP6 ADD DUP3 PUSH2 0x1D07 JUMP JUMPDEST POP PUSH1 0xC0 DUP3 ADD MLOAD PUSH2 0x1C12 PUSH1 0xC0 DUP6 ADD DUP3 PUSH2 0x1D07 JUMP JUMPDEST POP PUSH1 0xE0 DUP3 ADD MLOAD PUSH2 0x1C25 PUSH1 0xE0 DUP6 ADD DUP3 PUSH2 0x1CE9 JUMP JUMPDEST POP POP POP POP JUMP JUMPDEST PUSH2 0x100 DUP3 ADD PUSH1 0x0 DUP3 ADD MLOAD PUSH2 0x1C42 PUSH1 0x0 DUP6 ADD DUP3 PUSH2 0x1D07 JUMP JUMPDEST POP PUSH1 0x20 DUP3 ADD MLOAD PUSH2 0x1C55 PUSH1 0x20 DUP6 ADD DUP3 PUSH2 0x1D07 JUMP JUMPDEST POP PUSH1 0x40 DUP3 ADD MLOAD PUSH2 0x1C68 PUSH1 0x40 DUP6 ADD DUP3 PUSH2 0x1B23 JUMP JUMPDEST POP PUSH1 0x60 DUP3 ADD MLOAD PUSH2 0x1C7B PUSH1 0x60 DUP6 ADD DUP3 PUSH2 0x1CA7 JUMP JUMPDEST POP PUSH1 0x80 DUP3 ADD MLOAD PUSH2 0x1C8E PUSH1 0xC0 DUP6 ADD DUP3 PUSH2 0x1CF8 JUMP JUMPDEST POP PUSH1 0xA0 DUP3 ADD MLOAD PUSH2 0x1CA1 PUSH1 0xE0 DUP6 ADD DUP3 PUSH2 0x1CF8 JUMP JUMPDEST POP POP POP POP JUMP JUMPDEST PUSH1 0x60 DUP3 ADD PUSH1 0x0 DUP3 ADD MLOAD PUSH2 0x1CBD PUSH1 0x0 DUP6 ADD DUP3 PUSH2 0x1B23 JUMP JUMPDEST POP PUSH1 0x20 DUP3 ADD MLOAD PUSH2 0x1CD0 PUSH1 0x20 DUP6 ADD DUP3 PUSH2 0x1B23 JUMP JUMPDEST POP PUSH1 0x40 DUP3 ADD MLOAD PUSH2 0x1CE3 PUSH1 0x40 DUP6 ADD DUP3 PUSH2 0x1CF8 JUMP JUMPDEST POP POP POP POP JUMP JUMPDEST PUSH2 0x1CF2 DUP2 PUSH2 0x1E3E JUMP JUMPDEST DUP3 MSTORE POP POP JUMP JUMPDEST PUSH2 0x1D01 DUP2 PUSH2 0x1E5E JUMP JUMPDEST DUP3 MSTORE POP POP JUMP JUMPDEST PUSH2 0x1D10 DUP2 PUSH2 0x1E6D JUMP JUMPDEST DUP3 MSTORE POP POP JUMP JUMPDEST PUSH2 0x1D1F DUP2 PUSH2 0x1E6D JUMP JUMPDEST DUP3 MSTORE POP POP JUMP JUMPDEST PUSH1 0x0 PUSH1 0x20 DUP3 ADD SWAP1 POP PUSH2 0x1D3A PUSH1 0x0 DUP4 ADD DUP5 PUSH2 0x1B32 JUMP JUMPDEST SWAP3 SWAP2 POP POP JUMP JUMPDEST PUSH1 0x0 PUSH1 0x80 DUP3 ADD SWAP1 POP PUSH2 0x1D55 PUSH1 0x0 DUP4 ADD DUP8 PUSH2 0x1B14 JUMP JUMPDEST PUSH2 0x1D62 PUSH1 0x20 DUP4 ADD DUP7 PUSH2 0x1D16 JUMP JUMPDEST PUSH2 0x1D6F PUSH1 0x40 DUP4 ADD DUP6 PUSH2 0x1D16 JUMP JUMPDEST DUP2 DUP2 SUB PUSH1 0x60 DUP4 ADD MSTORE PUSH2 0x1D81 DUP2 DUP5 PUSH2 0x1B41 JUMP JUMPDEST SWAP1 POP SWAP6 SWAP5 POP POP POP POP POP JUMP JUMPDEST PUSH1 0x0 PUSH1 0x20 DUP3 ADD SWAP1 POP PUSH2 0x1DA1 PUSH1 0x0 DUP4 ADD DUP5 PUSH2 0x1B7A JUMP JUMPDEST SWAP3 SWAP2 POP POP JUMP JUMPDEST PUSH1 0x0 PUSH2 0x100 DUP3 ADD SWAP1 POP PUSH2 0x1DBD PUSH1 0x0 DUP4 ADD DUP5 PUSH2 0x1B89 JUMP JUMPDEST SWAP3 SWAP2 POP POP JUMP JUMPDEST PUSH1 0x0 PUSH2 0x100 DUP3 ADD SWAP1 POP PUSH2 0x1DD9 PUSH1 0x0 DUP4 ADD DUP5 PUSH2 0x1C2B JUMP JUMPDEST SWAP3 SWAP2 POP POP JUMP JUMPDEST PUSH1 0x0 PUSH1 0x40 MLOAD SWAP1 POP DUP2 DUP2 ADD DUP2 DUP2 LT PUSH8 0xFFFFFFFFFFFFFFFF DUP3 GT OR ISZERO PUSH2 0x1E06 JUMPI PUSH2 0x1E05 PUSH2 0x1F04 JUMP JUMPDEST JUMPDEST DUP1 PUSH1 0x40 MSTORE POP SWAP2 SWAP1 POP JUMP JUMPDEST PUSH1 0x0 DUP2 MLOAD SWAP1 POP SWAP2 SWAP1 POP JUMP JUMPDEST PUSH1 0x0 DUP3 DUP3 MSTORE PUSH1 0x20 DUP3 ADD SWAP1 POP SWAP3 SWAP2 POP POP JUMP JUMPDEST PUSH1 0x0 PUSH2 0x1E37 DUP3 PUSH2 0x1E3E JUMP JUMPDEST SWAP1 POP SWAP2 SWAP1 POP JUMP JUMPDEST PUSH1 0x0 PUSH20 0xFFFFFFFFFFFFFFFFFFFFFFFFFFFFFFFFFFFFFFFF DUP3 AND SWAP1 POP SWAP2 SWAP1 POP JUMP JUMPDEST PUSH1 0x0 PUSH3 0xFFFFFF DUP3 AND SWAP1 POP SWAP2 SWAP1 POP JUMP JUMPDEST PUSH1 0x0 DUP2 SWAP1 POP SWAP2 SWAP1 POP JUMP JUMPDEST PUSH1 0x0 PUSH2 0x1E82 DUP3 PUSH2 0x1EAD JUMP JUMPDEST SWAP1 POP SWAP2 SWAP1 POP JUMP JUMPDEST PUSH1 0x0 PUSH2 0x1E94 DUP3 PUSH2 0x1E9B JUMP JUMPDEST SWAP1 POP SWAP2 SWAP1 POP JUMP JUMPDEST PUSH1 0x0 PUSH2 0x1EA6 DUP3 PUSH2 0x1E3E JUMP JUMPDEST SWAP1 POP SWAP2 SWAP1 POP JUMP JUMPDEST PUSH1 0x0 PUSH2 0x1EB8 DUP3 PUSH2 0x1EBF JUMP JUMPDEST SWAP1 POP SWAP2 SWAP1 POP JUMP JUMPDEST PUSH1 0x0 PUSH2 0x1ECA DUP3 PUSH2 0x1E3E JUMP JUMPDEST SWAP1 POP SWAP2 SWAP1 POP JUMP JUMPDEST PUSH1 0x0 JUMPDEST DUP4 DUP2 LT ISZERO PUSH2 0x1EEF JUMPI DUP1 DUP3 ADD MLOAD DUP2 DUP5 ADD MSTORE PUSH1 0x20 DUP2 ADD SWAP1 POP PUSH2 0x1ED4 JUMP JUMPDEST DUP4 DUP2 GT ISZERO PUSH2 0x1EFE JUMPI PUSH1 0x0 DUP5 DUP5 ADD MSTORE JUMPDEST POP POP POP POP JUMP JUMPDEST INVALID JUMPDEST PUSH1 0x0 PUSH1 0x1F NOT PUSH1 0x1F DUP4 ADD AND SWAP1 POP SWAP2 SWAP1 POP JUMP JUMPDEST PUSH2 0x1F20 DUP2 PUSH2 0x1E2C JUMP JUMPDEST DUP2 EQ PUSH2 0x1F2B JUMPI PUSH1 0x0 DUP1 REVERT JUMPDEST POP JUMP JUMPDEST PUSH2 0x1F37 DUP2 PUSH2 0x1E5E JUMP JUMPDEST DUP2 EQ PUSH2 0x1F42 JUMPI PUSH1 0x0 DUP1 REVERT JUMPDEST POP JUMP JUMPDEST PUSH2 0x1F4E DUP2 PUSH2 0x1E6D JUMP JUMPDEST DUP2 EQ PUSH2 0x1F59 JUMPI PUSH1 0x0 DUP1 REVERT JUMPDEST POP JUMP INVALID LOG2 PUSH5 0x6970667358 0x22 SLT KECCAK256 0xCE 0xB3 0xB7 ADDMOD 0xFB 0xB5 SWAP14 MSTORE8 0x5D EXTCODESIZE MUL PUSH3 0x4D262E 0xD1 PUSH11 0x8EA42B04B595BAF7C2B11F DUP7 0x4E 0xAB PUSH10 0x64736F6C634300070600 CALLER "},"methodIdentifiers":{"WETH9()":"4aa4a4fc","factory()":"c45a0155","initFlash((address,address,uint24,uint256,uint256,uint24,uint24))":"2384463b","refundETH()":"12210e8a","swapRouter()":"c31c9c07","sweepToken(address,uint256,address)":"df2ab5bb","uniswapV3FlashCallback(uint256,uint256,bytes)":"e9cbafb0","unwrapWETH9(uint256,address)":"49404b7c"}}}}}